:030000000200807B
:08000B00C0D01200D8D0D032A1
:08001B00C0D01200E8D0D03281
:10008000758911758408758300D2AFD2A9D2AB757A
:10009000820074FEF0E0B47EF61200CF308C0C7556
:1000A0008204C28CC28EE4F00200BD758204D28C40
:1000B000D28E7F0875301C758A46758CFD1200CF74
:1000C00075820074FEF0E0B47EF302008F80FE794A
:1000D000577800D8FED9FA22C28DE530641CF5307D
:1000E000F0758A46758CFD22C28FBF00067F0863BB
:0500F0008810221F2210
:00000001FF
