:10000000020080807B7E7B7DEEEDEBDEDDDBBEBD26
:07001000BB7E7BE7D7B77749
:1000800075880175E8C81201B51200F374A0120159
:100090001D40ED1201081200F374A012011D40E092
:1000A000740512011D40D91200F374A112011D4004
:1000B000CF12014C120162FD1201087C007B10EC92
:1000C00090000793FA758200758300758408F0E04C
:1000D000647E60050CDBE880E21200F374A012017C
:1000E0001D740512011DED244012011D120108802E
:1000F000A580FED2EF1201B5D2ED1201B5C2EF120A
:1001000001B5C2ED1201B522C2EF1201B5D2ED1256
:1001100001B5D2EF1201B5C2ED1201B5227E08334E
:1001200092EF1201B5D2ED1201B5C2ED1201B5DEAA
:10013000EEC2EE1201B5D2ED1201B5A2EC920012A0
:1001400001B5C2ED1201B5D2EEA200227E08C2EEC8
:10015000D2ED1201B5A2EC33C2ED1201B5DEF1D23F
:10016000EE22D2EF1201B5D2ED1201B5C2ED1201AD
:10017000B522758408758300758201F01201BA7585
:100180008206740DF01201BA740CF01201BA2275D5
:100190008408758300758201F01201AC75820674C3
:1001A00009F01201BA7408F01201BA227E067FE744
:1001B000DFFEDEFA227F01DFFE227E017F19DFFEF5
:1001C000DEFA227A1579007800D8FED9FADAF6221A
:1001D0007A0979F2780ED8FED9FADAF6227A097914
:0A01E000F27838D8FED9FADAF622D8
:00000001FF
