:030000000200807B
:1000800075880175E8C81200A67582007583007531
:10009000840874FEF0E0B4DEED1200A6B4DEE712D0
:1000A00000B880E280FE7A2379467846D8FED9FAF5
:1000B000DAF62278F4D8FE221200F4EB641860E439
:1000C000EB04040404FB75F00A84F9AAF01200D1D1
:1000D00022EC5400FCEA4CFCE9232323234CFC12C1
:1000E000012B74A012015B740412015BEC12015B22
:1000F0001201432212012B74A012015B740412013D
:100100005B12012B74A112015B12018D1201B91255
:100110000143FC543FF5F0232323235403F9E5F076
:10012000540FFAE975F00AA42AFB221201EBD2EF70
:100130001201EBD2ED1201EBC2EF1201EBC2ED1294
:1001400001EB221201EBC2EF1201EBD2ED1201EB37
:10015000D2EF1201EBC2ED1201EB221201EB7E088D
:100160003392EF1201EBD2ED1201EBC2ED1201EB73
:10017000DEEEC2EE1201EBD2ED1201EBA2EC920028
:100180001201EBC2ED1201EBD2EEA200221201EB42
:100190007E08C2EED2ED1201EBA2EC33C2ED1201E9
:1001A000EBDEF1D2EE221201EBC2EF1201EBD2ED47
:1001B0001201EBC2ED1201EB221201EBD2EF1201A0
:1001C000EBD2ED1201EBC2ED1201EB227584087542
:1001D00083007582017401F01200B3758206740900
:1001E000F01200B37408F01200B3227F01DFFE2288
:00000001FF
