:030000000200807B
:1000800075880175E8C81200C47582007583007513
:10009000840874FDF0E0B4DD0B1200C4B4DD051279
:1000A000016080E21200C4758200758300758408C7
:1000B00074FBF0E0B4EBCF1200C4B4EBC91200D66D
:1000C00080C480FE7A2379467823D8FED9FADAF6FE
:1000D0002278F4D8FE221200DD120114221201DB74
:1000E00074A012020B740512020B1201DB74A11230
:1000F000020B12023D1202691201F3FC543FF5F0AB
:10010000232323235403F9E5F0540FFAE975F00A89
:10011000A42AFB22120124E92430120143EA2430EC
:1001200012014322758408758300758201748EF074
:100130001200D17582067409F01200D17408F01211
:1001400000D122758408758300758201F01200D1F8
:10015000758206740DF01200D1740CF01200D122D9
:100160007403FB75F00084F9AAF01201AB7403FB71
:1001700075F00A84F9AAF01201887406FB75F00A7A
:1001800084F9AAF01201C322EC54E0FCEA4CFCE929
:10019000232323234CFC1201DB74A012020B7405F1
:1001A00012020BEC12020B1201F32274C3FC1201B7
:1001B000DB74A012020B740512020BEC12020B127C
:1001C00001F32274E6FC1201DB74A012020B740628
:1001D00012020BEC12020B1201F32212029BD2EF5D
:1001E00012029BD2ED12029BC2EF12029BC2ED12D1
:1001F000029B2212029BC2EF12029BD2ED12029BC3
:10020000D2EF12029BC2ED12029B2212029B7E08C9
:100210003392EF12029BD2ED12029BC2ED12029BAF
:10022000DEEEC2EE12029BD2ED12029BA2EC920015
:1002300012029BC2ED12029BD2EEA2002212029B7E
:100240007E08C2EED2ED12029BA2EC33C2ED120286
:100250009BDEF1D2EE2212029BC2EF12029BD2ED84
:1002600012029BC2ED12029B2212029BD2EF1202DB
:100270009BD2ED12029BC2ED12029B22758408757F
:1002800083007582017401F01200D1758206740931
:10029000F01200D17408F01200D1227F01DFFE229B
:00000001FF
