:10000000020080807B7E7B7DEEEDEBDEDDDBBEBD26
:07001000BB7E7BE7D7B77749
:1000800075880175E8C81201C912010774A0120130
:100090003140ED12011C12010774A012013140E041
:1000A000740512013140D912010774A112013140C7
:1000B000CF120160120176FD12011C7C007B10EC56
:1000C00090000793FA758200758300758408F0E04C
:1000D000647E600F0CDBE874841201A37453120178
:1000E0008680D874841201A3745412018612010709
:1000F00074A01201317405120131ED244012013156
:1001000012011C809180FED2EF1201C9D2ED1201C2
:10011000C9C2EF1201C9C2ED1201C922C2EF120118
:10012000C9D2ED1201C9D2EF1201C9C2ED1201C943
:10013000227E083392EF1201C9D2ED1201C9C2ED3D
:100140001201C9DEEEC2EE1201C9D2ED1201C9A23E
:10015000EC92001201C9C2ED1201C9D2EEA2002236
:100160007E08C2EED2ED1201C9A2EC33C2ED12013B
:10017000C9DEF1D2EE22D2EF1201C9D2ED1201C9CD
:10018000C2ED1201C922758408758300758201F0E1
:100190001201CE758206740DF01201CE740CF012AD
:1001A00001CE22758408758300758201F01201C0AA
:1001B0007582067409F01201CE7408F01201CE2285
:1001C0007E067FE7DFFEDEFA227F01DFFE227E0170
:1001D0007F19DFFEDEFA227A1579007800D8FED981
:1001E000FADAF6227A0979F2780ED8FED9FADAF636
:0E01F000227A0979F27838D8FED9FADAF622A6
:00000001FF
